S00B0000546573742E73333749
S31500000000401A002035970200293600002D360000E0
S31500000010A70A0A010001000004180FAC3062CC00E8
S3150000002000000000000000000000000000000000CA
S3150000003000000000D03F03000000000000000000A8
S315000000400000000000000000FFFFFFFFFFFFFFFFB2
S31500000050FFFFFFFF00E803000E0000000008040099
S31500000060FFFFFFFFFFFFFFFF28000000000000006A
S31500000070000000000000000000000000000000007A
S31500000080903A0020903A0020903A0020903A0020C2
S31500000090401A002090830300EAF40200E0100020DA
S311000000A0C010002000080400903A002068
S31500000100401A002035970200293600002D360000DF
S31500000110353600003136000039360000B4360000AE
S31500000120B4360000B4360000B4360000B436000021
S315000001303D360000B4360000B43600006B9A02006B
S31500000140557C0000B181010011680000B436000042
S31500000150A17C01001D820100BD810100D581010045
S31500000160B5810100F1730000BD740000AD8D000083
S315000001707D250100B4360000B4360000815300002E
S31500000180B4360000B4360000E1740000B436000056
S31500000190B4360000B4360000B4360000B4360000B1
S315000001A0B4360000B4360000B4360000B4360000A1
S315000001B021820100B981010071690100C579000041
S315000001C061820100B436000061690100B4360000A6
S315000001D0B4360000B4360000B4360000B436000071
S315000001E0B4360000B4360000B4360000B436000061
S311000001F0B4360000B4360000B43600003F
S315000001FC70470020704770477047704770477047CC
S3150000020C70477047704770470020704708B501204B
S3150000021C03F0B6FB044B00221A7001200CF0ECFF25
S3150000022CBDE8084003F0A1BB182C002008B501203E
S3150000023C03F0A6FB044B00221A7001200EF02CFED4
S3150000024CBDE8084003F091BB282C002008B501201E
S3150000025C03F096FB044B00221A7001200CF060FD93
S3150000026CBDE8084003F081BB202C002008B5012016
S3150000027C1CF0ECFF02481CF065FF024B187008BD21
S3150000028CE8F60200302C002008B503F05DF90128D1
S3150000029C05D0034B1878BDE808401CF03BBF08BDE1
S315000002AC302C002010B50C1E02D11CF0ADFE02E065
S315000002BC03DB1CF0B5FE002010BD022010BDB1F50D
S315000002CC000F02D20902FFF7EDBF022070470000B3
S315000002DC2DE9F0419846144B1B880026F5B29D4239
S315000002EC0FD20C24114F65437C197D5D85420BD1D1
S315000002FC65888D4208D12579954205D101F0E4F83F
S3150000030C20B90220BDE8F0810136E7E7A068414636
S3150000031CFFF7C8FF0028F4D19DF8183063719DF8DB
S3150000032C1C30A371BDE8F081641A0020401A00202D
S3150000033C13B5144600939DF8103001930122234601
S3150000034CFFF7C6FF02B010BD13B5144600939DF817
S3150000035C1030019300222346FFF7BAFF02B010BDFE
S3150000036C07B500230093FFF7EFFF03B05DF804FB1E
S3150000037C0D4BF0B51F880024E5B2BD4212D20C23FA
S3150000038C0A4E6B43F518F35C834209D16B888B429A
S3150000039C06D12B79934203D1AB6800201870F0BDBF
S315000003AC0134E9E70220F0BD641A0020401A00204F
S315000003BC0122FFF7DDBF0022FFF7DABF2DE9F04F70
S315000003CC1E4693B0FF23022E8046894614461C9F78
S315000003DC9DF874A08DF81E3040F2AE803B785A071B
S315000003EC05D5042E40F2A88097F804B001E097F8E2
S315000003FC02B00023564A02EBC302DDB21279FF2A81
S3150000040C04D001330A2BF5D19AE0FF2512A900235B
S3150000041C01F8293D207908AA02F09CFA50B1BDF8E2
S3150000042C2C3023809DF81F0003F098FA8DF81D00E0
S3150000043C98B18AE0207901F063F8FF287ED0059008
S3150000044C207903F09DFA8DF81D0000287DD1059BBF
S3150000045C404800EB031043882380618823884FF6BD
S3150000046CFF72B8F1000F08BF4A468DE806005846E1
S3150000047C0021524604F006FB18B1E38843F0200332
S3150000048CE380209B0D930DA80DF11D010E940F9783
S3150000049CADF84090ADF842608DF844808DF845A0DB
S315000004AC02F08AFA002844D140464946224604F016
S315000004BCF1FB80B2864214D80DF11E030193BDF8F0
S315000004CC783002939DF87C3003930097F3B2404644
S315000004DC4946224600F019FD209B8DF81D0023B9D4
S315000004EC12E074238DF81D300EE068B99DF81E20BD
S315000004FCFF2A09D0092D9FBF154B03EBC5010A71C5
S3150000050C209A98BF43F835209DF81D30BA2B08D198
S3150000051CE388DB0605D5002301208DF81D3003F09A
S3150000052C19F89DF81D3013B9112002F0F3F903F0F8
S3150000053C1CFA9DF81D0008E0012006E0A32004E04B
S3150000054C209B002B3FF461AFB42013B0BDE8F08FB5
S3150000055C001F0020E42C00200023054AD118FF20A0
S3150000056C0871002199500833502BF6D1704700BF03
S3150000057C001F002070B586B00C4600930123019332
S3150000058CBDF8283002939DF82C30039305460C9B3E
S3150000059C2081164604932946224633460420FFF74B
S315000005AC0DFF06B070BD70B586B00C4600930123E6
S315000005BC0193002305461646029303930A9B20815A
S315000005CC04932946224633460320FFF7F7FE06B06E
S315000005DC70BD13B500240094FFF7E5FF02B010BD03
S315000005ECF0B50D4685B01646044658B351B34AB31A
S315000005FC0027F8B2694618F02FF820BB9DF800309A
S3150000060C032B1AD19DF8012023799A4215D1BDF8F6
S3150000061C022063889A4210D19DF805309DF8060099
S3150000062C03EB002080B29DF80430637120812146D3
S3150000063C2A463346FFF7CDFF28B901370A2FD8D102
S3150000064C002000E0022005B0F0BD70B586B006466D
S3150000065C00930123019300230D4614460293039342
S3150000066C0A9B049331462A4623460620FFF7A6FE2C
S3150000067C06B070BD70B586B0064600930123019393
S3150000068CBDF8283002939DF82C3003930D460C9B35
S3150000069C0493144631462A4623460520FFF78EFE60
S315000006AC06B070BDF0B502288BB006460D46144652
S315000006BC1F460AD1C8B206A917F0CEFF98B99DF805
S315000006CC193023719DF81C306371109B0093002226
S315000006DC119B0192029203920493304629462246BC
S315000006EC3B46FFF76BFE0BB0F0BD13B5049C0094B4
S315000006FC00240194FFF7D6FF02B010BD2DE9F0439C
S3150000070C06468BB00F46904699460025E8B206A9D8
S3150000071C17F0A2FF044618BB9DF81830012B1AD10E
S3150000072C9DF8192033799A4215D1BDF81A20738891
S3150000073C9A4210D19DF81C3073710190029003906F
S3150000074CCDF80080CDF810900220A9B232463B4677
S3150000075CFFF734FE18B901350A2DD7D100E004464F
S3150000076C20460BB0BDE8F0837FB505460E461DF05E
S3150000077C5BFD04460D4902202A46234603F0F2F996
S3150000078C8CB986B101238DF80E30032300932246D3
S3150000079C4FF6FC70362103AB8DF80C408DF80D50DE
S315000007AC04F094FD0446204604B070BDA7F7020081
S315000007BCFF2810B50C4604D10220044903F0D2F9E7
S315000007CCFE202146BDE81040FFF7CEBFBEF7020063
S315000007DCF8B5B1F800E006460C4615461F46BEF1C4
S315000007EC000F19D100F067FC70B92A463B4630461B
S315000007FC214612F057F9628848F221039A4203D136
S3150000080C3046697802F0B0F86388B3F5004F05D925
S3150000081C082002F0E0F801E00020F8BD0120F8BD48
S3150000082C2DE9F04788B00E46924699468046BDF8AB
S3150000083C4040119D22F086FA8DF8088007460396F3
S3150000084C0495ADF81440ADF816008DF818A08DF887
S3150000085C199000F005FA8DF81A0000F003FA8DF8DD
S3150000086C1B0018F09CF98DF81C0002A802F0A2F8E7
S3150000087CA8B9384631462A46234603F075FD70B9A9
S3150000088C384631462A462346FFF7A2FF38B901906F
S3150000089C0097304641462A46234604F013F908B021
S315000008ACBDE8F0872DE9F74F0D9DBDF830609DF83A
S315000008BC38B08146884614461F46002B30D002209D
S315000008CC3E493F4A03F06CF9238853B140F20912B2
S315000008DC934208D03B493C4AB3F5827F18BF0A467F
S315000008EC02E03A4A00E03A4A618802208DE842006A
S315000008FC384903F055F9238873B1022E0CD92B789D
S3150000090C354A364913F0010F354B4FF0020008BF3C
S3150000091C1A46AB7803F044F90220324903F022F967
S3150000092C0023314A02EBC3010979594502D152F829
S3150000093C33A004E001330A2BF3D14FF0000A002355
S3150000094C02EBC3010879584506D1FF220A71264AE3
S3150000095C002142F8331002E001330A2BF0D147B9DB
S3150000096C238833B9B4F90230002B02DB082001F0DE
S3150000097CD1FF012002F02FF855B12B78DB0707D5F4
S3150000098C8DE8A000484641462246334600F07CFFDF
S3150000099CBAF1000F06D08DE8A00048464146224623
S315000009AC3346D04748464146224633460C950D976A
S315000009BC03B0BDE8F04F01F0D3BF00BF12F8020040
S315000009CC1CF8020005F9020000F80200F9F7020013
S315000009DCFDF7020024F8020003F8020053F80200A7
S315000009EC0BF8020003620300001F0020962813B5C3
S315000009FC04462FD005D8912827D094282AD09028A1
S31500000A0C07E0AF2804D8AB281DD298282AD121E0BC
S31500000A1CBC2827D100F01EF91F4900901F4A204B15
S31500000A2C022003F09FF8BC2C08D11E49022003F0CB
S31500000A3C99F801F0C9FF01F0C8FF01E024F0E6FACD
S31500000A4C01F0C3FF0EE0912804D102201649134A87
S31500000A5C134B03E01549114A154B022003F082F89B
S31500000A6C03F0ABFE204610F022F820460EF080F97B
S31500000A7C20460DF05FFA204604F000FE204601F0F9
S31500000A8CB0FF30B10B49022002B0BDE8104003F0B4
S31500000A9C69B802B010BD00BF66F8020073F8020018
S31500000AAC7AF8020083F80200A1F80200AAF8020004
S31500000ABC002C0300B3F8020013B5104C002002F012
S31500000ACC4DFF236833B9032301A8ADF804301EF09B
S31500000ADCBBF90EE001A800F06DFA0028F3D12268EC
S31500000AEC9DF8043012789342EDD0012A01D1022BE5
S31500000AFCE9D002F03AFF02B010BD00BFE81F00209B
S31500000B0C10B5044602F02FFF204601F067FFBDE842
S31500000B1C104002F02ABF000010B508F072FF4FF427
S31500000B2CE13100220123202011F04AFA05F09CFB4A
S31500000B3C044605F0F5FE224603461249012003F051
S31500000B4C11F805F097FB044605F0F6FE224603461F
S31500000B5C0D49012003F006F805F086FB012303FA84
S31500000B6C00F240F2A17313405BB1084C207805F0FB
S31500000B7C87FB207805F046FC2078BDE8104005F090
S31500000B8C45BD10BD78F902008EF90200671A0020E7
S31500000B9C07B5002101A80A46FFF72BFB002845D113
S31500000BAC1CF014F8034640B101202249224A02F0F7
S31500000BBCD9FF2248A02105F0FFF902F0C5FEFFF788
S31500000BCCCBFC00F0A7FA00F063FA0220014603F012
S31500000BDC11FBFFF771FF02F089F9194B41F21C2248
S31500000BEC1A80184A52231380174A4FF40040138078
S31500000BFC18F0A4FB05F028FE1CF096F802F0A4FCF5
S31500000C0C012801D000F04BFA11F042FAFFF73CFB39
S31500000C1C0020202102F094FB28B14FF6FF700B49FF
S31500000C2C0B4A02F0BDFF02F0A2FEE3E7019803B007
S31500000C3C5DF804FBAEF902001CF80200BFF90200D5
S31500000C4CE81E0020E41E0020E21E002037FA0200F7
S31500000C5C3BFA02001CF06EB91BF03ABF1BF080BFCA
S31500000C6C22F070BB1FB5684622F07AF898B902A933
S31500000C7C23F09AFF02A86946082202F078FD00B319
S31500000C8C012002A923F090FF02A86946082202F06F
S31500000C9C6EFD38B912E022F055F84FF6FF73984204
S31500000CAC044601D1FF200CE0002023F095FFA04262
S31500000CBC06D0012023F090FFA042F3D1012000E0E2
S31500000CCC002004B010BD7FB5054602F04CFE1CF0AA
S31500000CDC31F938B16B88B3F5006F03D1681D01F09B
S31500000CEC41FE11E0284601F074FE044690B9E6B2C6
S31500000CFC3046694617F0B0FC40B99DF800302BB968
S31500000D0C3046294617F00CFD044603E001340A2C44
S31500000D1CEDD1B42402F029FE204604B070BD38B5DE
S31500000D2C054602F020FE284601F051FE044618B98D
S31500000D3C284617F0C3FC044602F017FE204638BDC1
S31500000D4C37B502A9FF2301F8013D044601F0FEFD6B
S31500000D5C10B19DF8070011E0094B03EB04131D7B42
S31500000D6C17F01FFF854201D0FF2007E0204600F058
S31500000D7C23FA0028F8D0204600F064FC03B030BDFE
S31500000D8CE42C00202DE9F04107460D4601F0E0FD6C
S31500000D9C0646F0B9384600F0B3FBFF2819D00E4BC7
S31500000DAC03EB001494F80C8017F0FBFE804510D171
S31500000DBC63882B80A3886B80A3792B71012138461D
S31500000DCC00F046FC31466871384600F041FC0126BD
S31500000DDCA8713046BDE8F081E42C0020F8B5054634
S31500000DEC0E46144600F08CFBFF2802D14FF6FF701E
S31500000DFCF8BD0C4B03EB0010077B17F0D2FE8742B5
S31500000E0CF4D11EB928462146012204E0012EEDD16B
S31500000E1C28462146002200F045FC0028E6D0008832
S31500000E2CF8BD00BFE42C002010B5044602F09BFD73
S31500000E3C2046FFF7DBFDBDE8104002F096BD000032
S31500000E4C13B503460B480068C45CA24208D2009254
S31500000E5C02200949094A234602F084FE002007E0D5
S31500000E6C002208460092194623461CF00BFC20462D
S31500000E7C02B010BDB81A002040FA02001CF802009D
S31500000E8CF0B599B0154603AC0E46074602F06BFD5D
S31500000E9C284621465222FFF7D3FF85B28DB10DF1BC
S31500000EAC0A0021F03FFF0DF10B0021F043FF9DF8E6
S31500000EBC0A209DF90B300095019438463146FFF710
S31500000ECCAFFC02F052FD19B0F0BD2DE9F0419AB01D
S31500000EDC1C4605AD0F461646804602F044FD2046DC
S31500000EEC29465222FFF7ACFF50B180B28DE82100A3
S31500000EFC02944046394632469DF88030FFF7D2FCC4
S31500000F0C02F033FD1AB0BDE8F0812DE9F743074630
S31500000F1C0E460A98BDF830909DF834801946144652
S31500000F2C1CF0D8FBFF2805463AD00B9B1870062FF1
S31500000F3C30D8DFE807F00404040B12241D003846F1
S31500000F4C314622462B4622F065F921E00C2120463B
S31500000F5C0A462B4622F02EF91AE0E17ACDF80090DB
S31500000F6CCDF8048020460A462B4622F0E5F80FE021
S31500000F7C304621460C222B4622F084F808E0E37A10
S31500000F8C48468DE8280031464246234622F09EF814
S31500000F9C044600E0022428461CF04AFA204600E0EB
S31500000FAC182003B0BDE8F0830149082202F07EBB8D
S31500000FBC553900201DF07EBA13B5044602F0D3FC59
S31500000FCC0DF1060021F0AEFE0DF1070021F0B2FE88
S31500000FDC20469DF806109DF9072009F09DFE30B9B4
S31500000FEC20469DF806109DF9072010F05DFA02F0D8
S31500000FFCBCFC02B010BD38B505460C4602F0B3FC7D
S3150000100C2846214609F0B2FF18B92846214610F0A9
S3150000101C5BFABDE8384002F0A8BC38B505460C466C
S3150000102C02F0A1FC2846214609F0DCFE18B9284638
S3150000103C214610F027FABDE8384002F096BC00F0C5
S3150000104C47B870472DE9F0411E4686B00F4B154642
S3150000105C804603A80F461C782AF09EFF15F0FD0F5C
S3150000106C08D040B9BDF80C309B0704D5032D08BF3A
S3150000107C032400E0032440460094394632462B46AE
S3150000108C01F0B3FC204606B0BDE8F081501F0020ED
S3150000109C08B503F063FBBDE80840FFF7ADB808B52B
S315000010ACFFF7A9F80BF0E4FDBDE8084003F084BB9C
S315000010BC7047FFF7A9B801F081BC30B5BDF80C50EC
S315000010CCBDF8104003950494BDE830400AF05EBDAF
S315000010DC38B505460C4611F01BFD28462146BDE8E1
S315000010EC384001F087BC01F06BBC01F075BC000008
S315000010FC10B50123312B194608D0054A0233D418F2
S3150000110C14F8034C8442F5D1505C10BD002010BD80
S3150000111C58FA0200214A134686B033F8021BADF882
S3150000112C001018680490D2F80600059001228DF87C
S3150000113C09201B4A0221002311701A4A8DF804302B
S3150000114C8DF805308DF808308DF80C308DF80D3093
S3150000115C1DF80310117004A9103231F8131022F87F
S3150000116C0E1C05A931F8131022F80C1C01A9595CA8
S3150000117C02F80A1C02A9585C0B4901EBC00142F8A3
S3150000118C081C03A9595C02F8041C01218B4202F8C5
S3150000119C031C01D00B46DBE706B0704788FA020049
S315000011AC511F0020E42C002094FA0200014B187801
S315000011BC704700BF511F0020034B03EB0010407B10
S315000011CC00F00100704700BFE42C002041380328D2
S315000011DC8CBF002001207047002070470388B3F5B0
S315000011EC7C4F01D3FFF7F8BF0020704738B54A880B
S315000011FC03889A420C460DD10B79017B0B400BD020
S3150000120CB2F57C4F0AD3FFF7E7FF23891B1A584226
S3150000121C584104E0002002E0184600E0012000F0EE
S3150000122C010038BD38B514460D88D28895420AD1CE
S3150000123C0388B3F57C4F08D2FFF7D0FF23891B1A1E
S3150000124C5842584138BD002038BD012038BD000039
S3150000125C2DE9F04F89B09A469DF848300293764BAB
S3150000126CDFF8E4811B78019108EB0313074615465A
S3150000127C05934FF00009059B984500F0D78018F8A8
S3150000128C0D2C3B7858F805CC9A4240F0C78098F85C
S3150000129C0030DC0740F1C7809CF8043003934FF014
S315000012AC000B039A5FFA8BF3934280F0BC80DCF858
S315000012BC0030CDF810C0142606FB0B3630463946E6
S315000012CCFFF794FFDDF810C0002800F0A0803389EA
S315000012DC0493002304999AB28A4280F09C80726827
S315000012ECCDF81CC00C2404FB0324304621463A4698
S315000012FC0693FFF797FF069BDDF81CC000287CD0F1
S3150000130C019B03B11C602379980611D54B4A002327
S3150000131CA24209D21179890642BF92F803909944E8
S3150000132C1FFA89F30C32F3E7454803EB000901E099
S3150000133C44488144029B63B121463046FFF74EFF79
S3150000134C798823880246387801F0E9FA98B97E2024
S3150000135C6FE0002D4FD021463046FFF73FFF7988CE
S3150000136C23880246387801F0D8FA0028EFD02846B0
S3150000137CDFF8D88003E0DFF8D8804846A946237901
S3150000138CDB060DD521463046FFF728FF7988034644
S3150000139C387812952246C44609B0BDE8F04F60472E
S315000013ACA378BAF1000F01D1E27800E05246A3F11E
S315000013BC4101012905D8013A4946D2B203F0A4FCF1
S315000013CC19E0433B012B05D8023A494692B203F089
S315000013DCB5FC10E0029B2BB9BAF1000F02D0E378F2
S315000013EC534525D84946B9F1000F02D102F0B8F998
S315000013FC01E002F05BF900201BE0227912F0300FBD
S3150000140C02BFE07881441FFA89F9013362E77089DB
S3150000141C81441FFA89F90BF1010B42E7BCF806006F
S3150000142C81441FFA89F908F1100824E7862000E0A8
S3150000143C892009B0BDE8F08F511F002028FC02005E
S3150000144C342C0020042D0020F12C0020492900000A
S3150000145C4D29000010B586B000248DF81030BDF86B
S3150000146C20308DF80C00ADF80E10ADF81220ADF84A
S3150000147C1430009403A802A9224623460294FFF7CF
S3150000148CE7FE029806B010BDF0B507790024E3B26A
S3150000149CBB4215D21425654306687319755B8D42DC
S315000014AC0CD17AB1802A04D193F90C50002D05DAAF
S315000014BC08E0402A02D11D7B6D0603D40134E6E711
S315000014CC0020F0BD1846F0BD30B50B4B1978002343
S315000014DCDAB28A420ED2094A1C46013302EB0315D4
S315000014EC15F8105C8542F3D102EB0412507B00F028
S315000014FC010030BD002030BD511F0020E42C00201F
S3150000150C70B50A4B1D780022D3B2AB420AD2140135
S3150000151C07496618615C814202D1717BC90703D405
S3150000152C0132F1E7FF2070BD184670BD511F002037
S3150000153CE42C002038B50D461446FFF7E1FFFF28D2
S3150000154C09D0064B03EB0010294622468068BDE8FD
S3150000155C3840FFF799BF002038BD00BFE42C0020AF
S3150000156C08B50022FFF7E6FF003018BF012008BDC2
S3150000157C08B54022FFF7DEFF003018BF012008BD7A
S3150000158C08B58022FFF7D6FF003018BF012008BD32
S3150000159C10B5094B1C780022D3B2A34209D20749D5
S315000015AC013201EB021111F8101C8142F4D11846DC
S315000015BC10BDFF2010BD00BF511F0020E42C0020E1
S315000015CC38B50D461446FFF7E3FF054B03EB001049
S315000015DC294622468068BDE83840FFF755BF00BF54
S315000015ECE42C00202DE9F84306460F469046FFF7FB
S315000015FCA1FFC8B10F4B002593F800902C46EBB217
S3150000160C4B4514D20C4B013503EB051313F8100C98
S3150000161CB0420CD039464246FFF7D2FF00280CBF29
S3150000162C2046601CC4B2EAE7FF20BDE8F8832046DA
S3150000163CBDE8F883511F0020E42C00204022FFF760
S3150000164CD1BF0000014B0001185C7047E42C002050
S3150000165C70B50D46FFF754FFFF2817D0104B03EB60
S3150000166C00108268A2B1002411792046E3B28B42A5
S3150000167C0BD21668142303FB04635DB11B7B5B065C
S3150000168C01D5431CD8B20134F0E770BD002070BD03
S3150000169C104670BD93F90C30002BF4DAF1E700BF5D
S315000016ACE42C00202DE9F0410F469046FFF728FF69
S315000016BCFF281ED0104B03EB0010002486683279ED
S315000016CC2546E3B2934214D23068142303FB04007C
S315000016DCB8F1000F03D0037B5B0604D407E090F946
S315000016EC0C30002B03DABD4204D00135EDB20134C7
S315000016FCE7E70020BDE8F081E42C00202DE9F04F4F
S3150000170C8BB0064617F04BFA3D4B1B78039383467A
S3150000171C0024039B9C426FD2FF2E05D03046FFF768
S3150000172CEFFEFF28044667D0FF2EDFF8D8904FEA6D
S3150000173C041804D109EB08031B7B5B4559D1002720
S3150000174C09EB08039A681179FBB299424FD91268D2
S3150000175C142505FB03252B89B3F5967F01D905F0D6
S3150000176C73F84FF0000A2A891FFA8AF39A423CD979
S3150000177C0C21686859434218137913F0100F31D1B4
S3150000178C19F808E08DF81CE0B5F800E0ADF81EE09D
S3150000179C13F0400F14BF4FF0800E4FF0400E8DF833
S315000017AC20E0415AADF822102846114605930492C2
S315000017BCFFF714FD059B049AADF8240013F0040FF3
S315000017CCD37804D0022B926805D9126803E0022B59
S315000017DC8CBF9268083201230021009307A80B46A0
S315000017ECFFF736FD0AF1010ABDE70137A8E7FF2E20
S315000017FC02D10134E4B28CE70BB0BDE8F08F00BF28
S3150000180C511F0020E42C00200021FFF777BF10B5F4
S3150000181C01210446FFF772FF2046BDE81040FFF792
S3150000182C47BC704710B5047B11EA040310D00022A4
S3150000183C01238B4208D2234218BF01324FEA4303DD
S3150000184C18BFD2B2DBB2F4E7036953F8220010BD1D
S3150000185C184610BDF8B517469DF8182005461E46C5
S3150000186CFFF768FE78B10421FFF7DCFF044650B1A0
S3150000187C284602F085F8284639463246A047BDE888
S3150000188CF84002F072B8F8BD2DE9F74F0C9D9DF8A3
S3150000189C34B0824689461F46144612B30DB303B3C1
S315000018AC2B7892F80480518813F0080F14BF40224D
S315000018BC80224046FFF73EFE98B10821FFF7B2FFA3
S315000018CC064670B1404602F05BF88DE8200850469B
S315000018DC494622463B46B04703B0BDE8F04F02F0FE
S315000018EC44B803B0BDE8F08FF8B517461A4604465F
S315000018FCBDF81860FFF71EFEE0B15EB90221FFF7D6
S3150000190C91FF0546B0B1204602F03AF8204639461A
S3150000191CA8470BE01021FFF785FF054650B120467E
S3150000192C02F02EF8204639463246A847BDE8F84064
S3150000193C02F01BB8F8BD73B516461A460546FFF7F6
S3150000194CF9FDB8B1BDF81830B3B92021FFF76AFF1D
S3150000195C044698B1284602F013F8099B00932846D2
S3150000196C31469DF81C209DF82030A047044601F016
S3150000197CFCFF03E0862002E0002000E0204602B0D7
S3150000198C70BDF8B586680446007801F0F9FF0025AD
S3150000199C3379EAB2934211D914235343326820782F
S315000019ACD15AD71800F0BDFF38460121FFF73AFF90
S315000019BC034608B1207898470135E9E7BDE8F840B9
S315000019CC01F0D3BF10B50024074B1B78E0B283425D
S315000019DC09D9064B03EB0010437BDB0701D5FFF758
S315000019ECD0FF0134F0E710BD511F0020E42C00207D
S315000019FC2DE9F047099FBDF820E09DF828C09DF819
S31500001A0C2C804C7D28B14CB1012C14BF042501252A
S31500001A1C05E0002C14BF0425082500E00225184813
S31500001A2C002400F1BC0930F8036C96421ED190F8E4
S31500001A3C00A01AEA050F19D010F8016C664515D3EB
S31500001A4C1AF0100F91F80FA003D0BAF1000F03D1C2
S31500001A5C0CE0BAF1000F09D1A0450DD074450BD29C
S31500001A6C1E553E88013401363E80A4B204304845EA
S31500001A7CD9D10120BDE8F0870020BDE8F08700BF72
S31500001A8C63FB02002DE9F04F89B01C469DF84C30E3
S31500001A9C019392469DF850300293224606460D4617
S31500001AACFFF748FDBDF848308DF81460ADF81650B8
S31500001ABC8DF81840ADF81AA0ADF81C30804608B960
S31500001ACC01204CE005A9FFF791FB0028F8D04FF058
S31500001ADC000B5F465C465D46B8F808101FFA8BF2A1
S31500001AEC914238D90C265643B8F80020D8F8043061
S31500001AFCB2F57C4F03EB060905D3985B50450FD224
S31500001B0C0134A4B222E09A5BADF81A20404649464D
S31500001B1C05AA0393FFF786FB039B0028EDD117E07C
S31500001B2C019B9D4212D201F07DFE99F8020001F054
S31500001B3C65FE029B43B199F8042012F0010F14BF05
S31500001B4C0720052001F05AFE0135ADB20137BFB2B0
S31500001B5C0BF1010BC0E72C44E31B5842584109B06A
S31500001B6CBDE8F08F2DE9F04F8FB01746984600224E
S31500001B7C9DF87030BDF8609005938DF82C00ADF88B
S31500001B8C2E10134606460D4600920BA808A9199C62
S31500001B9C9DF868B008928DF83080ADF83270ADF8CB
S31500001BAC3490FFF755FB089B4BB904208DE8A00039
S31500001BBC5649574A334601F0D5FF8620A3E09DF8D7
S31500001BCC6C209AB99A785A4506D004205149504A45
S31500001BDC01F0C8FF8D2096E01A79D10706D40420AF
S31500001BEC4D494B4A01F0BEFF88208CE01A7952070A
S31500001BFC39D59A685168926809910A92987803F0D7
S31500001C0C23F9089B93F803A0BAF1020F844614D863
S31500001C1C63462146524609A8CDF81CC003F0AFF81E
S31500001C2CDDF81CC0069063460AA82146524603F00E
S31500001C3CA6F8069B012B12D113E063460998CDF842
S31500001C4C18C02146524603F09AF80128DDF818C050
S31500001C5C07D00A9821465246634603F090F80130A5
S31500001C6C01D187204FE0059B002B47D18DE8000A58
S31500001C7C089BDB7802930394304629463A46434642
S31500001C8C00F096FE00283ED18DE8000A089BDB7812
S31500001C9C02930394304629463A464346FFF74BFED9
S31500001CAC88BB0599012300930BA822460B46FFF728
S31500001CBCCFFA40BB204631462A46089BFFF7B1FDBA
S31500001CCC304629463A4643468DE8000A02940FF000
S31500001CDCCFF88DE8000A089BDB780293304629463C
S31500001CEC3A464346039400F062FECDF80090304627
S31500001CFC29463A464346FFF7F7FD03E00420074919
S31500001D0C01F030FF00200FB0BDE8F08FC2FE0200DC
S31500001D1CEAFE0200F6FE02000AFF02001EFF0200A7
S31500001D2C2DE9F04786B08246BDF838600F9D9DF8C8
S31500001D3C4040009601950294894690461F4600F055
S31500001D4CEAFD88B1022810D80CBF012300230393A7
S31500001D5C0023049300960195029450464946424648
S31500001D6C3B46FFF7FFFE00E0012006B0BDE8F0871A
S31500001D7C30B587B000240A9D01959DF82C5002952C
S31500001D8C0125009403950494FFF7ECFE07B030BDD3
S31500001D9C10B586B0002401939DF8203002930123E0
S31500001DAC0393009404948023FFF7DCFE06B010BD69
S31500001DBC10B586B0002401939DF8203002930123C0
S31500001DCC0393009404944023FFF7CCFE06B010BD99
S31500001DDC10B586B0BDF820400094099C01949DF87E
S31500001DEC284002940024039401240494FFF7BAFEBD
S31500001DFC06B010BD30B587B000248DF81030BDF894
S31500001E0C28308DF80C00ADF80E10ADF81220ADF898
S31500001E1C1430009403A802A90B9ABDF83030029432
S31500001E2C0D9DFFF715FA044620B94DB1029B9B7820
S31500001E3C2B7005E0892803D10420034901F092FE9A
S31500001E4C204607B030BD00BF3BFF02001FB5002483
S31500001E5C0094069C01949DF81C400294089C0394E3
S31500001E6CFFF7C8FF04B010BD1FB5002401939DF801
S31500001E7C18300293009403944023FFF7BBFF04B081
S31500001E8C10BD00002DE9F04397B08146BDF87C707B
S31500001E9CBDF87880042F0E4615461C4666D900926E
S31500001EAC0193CDF80880042032494A46334601F0A6
S31500001EBC59FE4123CDF8008002930DF114080DF163
S31500001ECC13030393CDF804802346484631462A462D
S31500001EDCFFF790FF0446D8B99DF81300A0F1410313
S31500001EEC012B04D8404601F01FFD013007E0A0F19C
S31500001EFC4303012B05D8404601F01BFD0230C4B24A
S31500001F0C02E0FFF7F5F80446E31CBB422EDA09E0C3
S31500001F1C284601F087FC204601F070FC0094042052
S31500001F2C15491FE0284601F07DFCDFF8589000208B
S31500001F3C01F064FC9DF8130001F060FCB9F8003068
S31500001F4C1A19512A0BDC0D48A7B218443A464146D9
S31500001F5C01F0ACFBB9F800301F44A9F80070084931
S31500001F6C0094042032462B4601F0FCFD17B0BDE868
S31500001F7CF08300BF390003006D000300902D002094
S31500001F8C90000300802D002010B50446C07B20B9BC
S31500001F9CE37C1BB903F046FA00E00020E37B20B992
S31500001FAC002B14BF8320812010BD002010BD10B55E
S31500001FBC0446C07B88B9E37C23B1012B0ED10AF011
S31500001FCCE7FE0BE0217DA2898B1C9A420DD3A068FB
S31500001FDC01F08FFC0AF0C2FE00E00020E37B30B972
S31500001FEC002B14BF8320812010BD802010BD002043
S31500001FFC10BDF8B5C37B0446002B6CD1C37C052BF6
S3150000200C69D8DFE803F003242F3B4649057D828916
S3150000201CAB1C9A4201D28020F8BDADB2294680682D
S3150000202C01F067FC0646A068A7890235284401F032
S3150000203C7BFC284401308742EDD32946A068A2894F
S3150000204C01F05EFC014630460AF0D6FA44E0017D0A
S3150000205C82898B1C9A42DED3806801F04AFC0AF016
S3150000206CEFFA39E0037D81895A1C9142D3D38268F9
S3150000207C591CD05C11440AF017FB2DE0017D8289B6
S3150000208C8B1C9A42C7D3806801F033FC0AF098FB8C
S3150000209C22E00AF0F3FB1FE0057D8289AB1C9A4215
S315000020ACB9D3ADB22946806801F023FC0646A06878
S315000020BCA7890235284401F037FC284401308742B1
S315000020CCA9D32946A068A28901F01AFC014630461C
S315000020DC0AF01EFC00E00020E37B20B9002B14BFA5
S315000020EC83208120F8BD0020F8BDC37B2DE9F74382
S315000020FC0446002B40F09E80C37C062B00F29A808F
S3150000210CDFE803F0044151616C7C8C00057D82890B
S3150000211CAB1C9A4201D2802095E0ADB2294680686C
S3150000212C01F0E7FBA289E91C8A42804605F102030D
S3150000213CF1D3A068C75C8B1C9A42ECD301F0D9FB97
S3150000214C0646A068B4F80C900535284401F0ECFB63
S3150000215C284401308145DED32946A289A06801F0C6
S3150000216CCFFB8146A068284401F0DEFB0130054414
S3150000217CA06810FA85F500954046394632464B461E
S3150000218C0FF030FE57E0057D8289EB1C9A42C2D3D4
S3150000219CADB22946806801F0ACFB0235A368595DE7
S315000021AC0FF0BCFE47E0057D8289EB1C9A42B2D348
S315000021BCADB22946806801F09CFB0235A368595DD7
S315000021CC0FF06CFA37E0017D82898B1C9A42A2D300
S315000021DC806801F08EFB0FF0D1FA2CE0057D828928
S315000021ECEB1C9A4297D3ADB22946806801F081FB6D
S315000021FC0235A368595D0FF02BFC1CE0057D828926
S3150000220CEB1C9A4287D3ADB22946806801F071FB6C
S3150000221C0235A368595D0FF081FC0CE0017D8289C3
S3150000222C8B1C9A42FFF477AF806801F062FB0FF0CB
S3150000223C0BFB00E00020E37B20B9002B14BF8320AE
S3150000224C812000E0002003B0BDE8F08310B5044601
S3150000225CC07B70B9E37C012B08D004D3022B09D1C7
S3150000226C0BF0E4FF06E00BF0C1FF03E00BF0CEFF32
S3150000227C00E00020E37B20B9002B14BF83208120D3
S3150000228C10BD002010BDC37BF7B50446002B40F0F3
S3150000229CC680C37C072B00F2C280DFE813F008006F
S315000022AC2E004F007A008F009E00AA00BD00037D11
S315000022BC8289591C8A42C0F0BA809DB28068691C1A
S315000022CCC65C8B1C9A42C0F0B28001F012FBEB1C70
S315000022DC0146A0895A1C904222BFA268D25C2B1DD3
S315000022EC03F1010538BFFF22A8422ABFA068FF23CD
S315000022FCC35C30460BF00AF892E0037D86895A1CC3
S3150000230C9642C0F094809FB28568BA1C9642E85CEF
S3150000231C07F10103C0F08B80E95C1346013296424B
S3150000232C24BFEA5CFB1C03F1010738BFFF22BE4247
S3150000233C2CBFEB5CFF230AF0FFFF71E0037D828963
S3150000234C591C8A4273D39DB28068A91C8A42C75C09
S3150000235C05F101036BD3C65C8B1C9A4267D301F063
S3150000236CC8FA291D0246A0894B1C984222BFA368B5
S3150000237C5B5C691D01F1010538BFFF23A8422ABF2A
S3150000238CA068FF21415C0091384631460AF0E6FF11
S3150000239C46E0027D8189501C814293B222BFA0681F
S315000023AC0133805C03F1010238BFFF2091422ABF42
S315000023BCA268FF21D15C0AF0E7FF31E0017D82893A
S315000023CCCB1C9A4233D38068455C013101F091FAFB
S315000023DC014628460AF0A5FF22E0037D81899A1C56
S315000023EC914224D38268591CD05C515C0AF0ADFF33
S315000023FC16E0037D8289191D8A4218D3806899B22A
S3150000240CC65C4B1C0231C55C01F073FA29460246C8
S3150000241C30460AF0AEFF03E00AF0BBFF00E00020F6
S3150000242CE37B30B9002B14BF8320812002E080208F
S3150000243C00E0002003B0F0BD2DE9F04FC37B8FB058
S3150000244C0446002B40F02881C37C0B2B00F2248120
S3150000245CDFE813F00C0043006F0022012201220179
S3150000246C9800220122012201D700ED00037D82890A
S3150000247C581C824224BFA068C75C99B234BFFF27A0
S3150000248C013117F0070308D10D1DAA4211D3A0681C
S3150000249C01F029FAA9B206460DE0022B09D101F189
S315000024AC08039A4205D3A5684FF0FF360D4499B23E
S315000024BC02E04FF0FF360025A2890B1D9A4204D389
S315000024CCA06801F010FA034601E04FF0FF333846DE
S315000024DC31462A4609F092F8DFE0037D82899DB2E7
S315000024EC03339A4206D32946806801F0FFF9033577
S315000024FC064601E04FF0FF3616F007030BD1A28912
S3150000250C2F1DBA42C0F0A3812946A06801F0EBF951
S3150000251CBDB281469DE1022B40F09981A28905F15D
S3150000252C08039A42C0F0C280A16801EB05089DB26F
S3150000253CBEE0017D8289481C824226BFA068455CAC
S3150000254CFF258BB205F00E0128BF0133022909D1F4
S3150000255C9E1CB24206D31946A06801F0CAF9B3B262
S3150000256C014601E04FF6FF71EA0606D5A0895A1C12
S3150000257C904202D3A268D25C00E0FF22284608F003
S3150000258CF9FF8AE0037D8289591C8A429DB224BFD9
S3150000259C8168013505F102072CBFCE5CFF26BA42D5
S315000025AC06D32946806801F0A4F9BDB2814601E044
S315000025BC4FF6FF79A2896B1C9A4229BFA1684FF08E
S315000025CCFF0A11F805A09DB216F007030CD105F110
S315000025DC04084245C0F040812946A06801F083F901
S315000025EC1FFA88F5074639E1022B40F0358105F1D3
S315000025FC08018A42A268C0F0FA8002EB05088DB287
S3150000260CF7E0037D81891A1D914201D280202AE1CF
S3150000261C86689DB2F05C6B1CF15CAB1CF25CEB1C2F
S3150000262C04353544F35C009509F01EF935E0037D5D
S3150000263C8289591C8A42E9D38068C75C9DB217F01F
S3150000264C1F0605F1010105D101F04DF9691D8646FC
S3150000265C32460AE0022E03BF42184FF0FF3E05F148
S3150000266C09014FF0FF3E18BF002207F00703022BAB
S3150000267C08BFA36807F0180003BF5B5C013189B281
S3150000268CFF2308280ABFA068FF20405C0090714613
S3150000269C384609F0B7F900E00020E37B20B9002B9F
S315000026AC14BF83208120DEE00020DCE04FF0000820
S315000026BC6B1C9A4206D3A2684FF0FF3912F805B08C
S315000026CC9DB203E04FF0FF394FF0FF0B06F070039D
S315000026DC602B09D1A28905F108039A427BD3A16824
S315000026EC29440B919DB278E000230B934FF6FF73B0
S315000026FC0993F30610D406F06003202B01D0402B6F
S3150000270C0AD1A289AF1CBA4206D32946A06801F0A9
S3150000271CF0F8BDB2824601E04FF6FF7A06F01803D8
S3150000272C082B08D1A3896A1C934204D3A3685B5D6A
S3150000273C0A9395B201E0FF230A9377040AD5A2897E
S3150000274C2F1DBA4206D32946A06801F0CCF8BDB2BB
S3150000275C034601E04FF0FF3316F4004708D0A18979
S3150000276C05F11002914229BFA76800277F1995B27F
S3150000277CF00311D5A28905F1020C62450CD329464A
S3150000278CA068CDF834C00C9301F0B3F8DDF834C072
S3150000279C0C9B1FFA8CF501E04FF6FF70B10306D5C2
S315000027ACA1896A1C914202D3A268525D00E0FF2205
S315000027BC0B990091099901910A990391049306903A
S315000027CC0792CDF808A005973046494642465B4627
S315000027DC08F016FF61E700230B93AF1CBA4285D3B2
S315000027EC2946A06801F085F8BDB2099081E74FF043
S315000027FC0008535D09930135ADB24FF0FF37A2893E
S3150000280CA0680A92691C8A4224BF10F805B08DB2E2
S3150000281C284438BF4FF0FF0B01F086F80A9A28447B
S3150000282C01308242FFF4F2AE2946A289A06801F07B
S3150000283C67F8099B01930390CDF80080CDF808B09A
S3150000284C3046494652463B4608F058FF25E74FF0BE
S3150000285CFF394FF0000837E74FF0FF37FF234FF0F3
S3150000286C00080993CBE70FB0BDE8F08F38B5C37BF2
S3150000287C002B437D14BF8325C325012B044616D19B
S3150000288C036858795988FEF77BFE80B123685B880C
S3150000289C192B06D0212B3BD12046BDE83840FFF73B
S315000028ACCBBDE37B002B14BF8325812530E0637DF4
S315000028BC73BB236858795988FEF75AFE40B32368D0
S315000028CC5B88082B24D8DFE803F00523230A0F14B2
S315000028DC19231E002046BDE83840FFF755BB20469D
S315000028ECBDE83840FFF763BB2046BDE83840FFF72C
S315000028FC80BB2046BDE83840FFF7F7BB2046BDE855
S3150000290C3840FFF7A3BC2046BDE83840FFF7BBBCF8
S3150000291C284638BD704701207047012070470120BA
S3150000292C70477047002070470020704700207047A2
S3150000293C0020704700207047002070470120704728
S3150000294C0120704700207047002070470020704718
S3150000295C002070470020704700207047B520704754
S3150000296C00207047B5207047704770477047704716
S3150000297C7047002070477047704700207047000072
S3150000298C034B1B681878012808BF0220704700BF4C
S3150000299CE81F002070470020704703464FF6FE7272
S315000029AC0120DA810022988118611A7070477047ED
S315000029BC00207047002070470020704700207047A9
S315000029CC00207047002070477047B52070470020E4
S315000029DC704700207047704700207047704770475B
S315000029EC704700207047002070477047704770474B
S315000029FC00207047704709200021012202F01CBB01
S31500002A0C2DE9F3470229064689461F468DF807200D
S31500002A1C0C9C01D80020A2E03BB10429FAD99DF800
S31500002A2C073043F004038DF807300DF1070001F071
S31500002A3C71FF9DF80730337027B177703F0AB77076
S31500002A4C032700E0012701F049FF07F1020AF055C0
S31500002A5C01379DF82830F3554FF000085FFA88F3DC
S31500002A6C0B9AD25C002A6ED0732A3BD84C2A04F1FE
S31500002A7C0407256803D0532A01D0622A15D163684E
S31500002A8C4C2A04F108079CB207D14FF6FF73224675
S31500002A9C9C4214BF0223002330E0532A2CD1DAB215
S31500002AACB2F1FF0318BF012328E06C2A04D1284693
S31500002ABC00F03FFF023005E0732A05D1284600F0EE
S31500002ACC33FF013084B217E0A2F13004E3B2092BD4
S31500002ADC01D8A4B210E0A2F14103062B9AD8373ADA
S31500002AEC94B209E0752A30D0762A30D0782A30D0C4
S31500002AFC772A8FD104232DE000231A460AEB040112
S31500002B0C1944894586DB5046194641B100F1010E40
S31500002B1C01393254C9B2120A1FFA8EF0F5E79A44FB
S31500002B2C1FFA8AFA5CB1002D3FF474AF06EB0A006B
S31500002B3C2946224600F0BAFDA2441FFA8AFA08F189
S31500002B4C01083C468AE7504609E0012302E00223CD
S31500002B5C00E00323271D226800242546CEE702B099
S31500002B6CBDE8F08710B5044C206004480180044988
S31500002B7C0A60044A136010BD5C1F0020521F00201F
S31500002B8C581F0020541F002070B586B00D46144601
S31500002B9C0F490AAA0988064652F8040B00930D4BF6
S31500002BAC029201900592186832462346FFF728FFD9
S31500002BBC094B1B681880094B044618684FF48A5356
S31500002BCC458020F8063F01F093FE204606B070BD06
S31500002BDC521F00205C1F0020581F0020541F00208D
S31500002BEC08B430B586B009AB0D461149044653F806
S31500002BFC040B0988059302930E4B00920190224612
S31500002C0C18680023FFF7FCFE0B4B1B6818800B4B58
S31500002C1C044618684FF48A53458020F8063F01F0A5
S31500002C2C67FE204606B0BDE8304001B0704700BFD5
S31500002C3C521F00205C1F0020581F0020541F00202C
S31500002C4C044A05491268034608681188034A126843
S31500002C5CFDF754BD581F0020541F00205C1F002098
S31500002C6C0020FFF7EDBF00001FB5074C2468248831
S31500002C7C8DE80E00054B1968054B22461B68FDF7BF
S31500002C8C79FC04B010BD00BF581F0020541F002053
S31500002C9C5C1F00200023FFF7E7BF0000044B054A2A
S31500002CAC1B6810681988044B1A68FDF799BC00BF9D
S31500002CBC581F0020541F00205C1F002013B5064B24
S31500002CCC064C1B6824681B880192054A00941268FE
S31500002CDCFDF7E8FC02B010BD581F00205C1F002059
S31500002CEC541F00200022FFF7E9BF00001FB5074C58
S31500002CFC246824888DE80E00054B1968054B22467E
S31500002D0C1B68FDF7B7FC04B010BD00BF581F0020B0
S31500002D1C541F00205C1F00200023FFF7E7BF0000B4
S31500002D2C014B1868704700BF541F00202DE9F04175
S31500002D3C0D46D1F808802A6834490446202004F050
S31500002D4CD7F86B6823B93249202004F0D1F84BE050
S31500002D5C002C49D0EB681BB120202E4904F0C8F892
S31500002D6C4646C8EB060716F8014BFFB2002C37D0C7
S31500002D7C2B691BB12020284904F0BAF8752C13D006
S31500002D8C762C13D0772C13D0732C13D0722C13D023
S31500002D9C712C13D0622C13D06E2C13D01F49204BE0
S31500002DAC2A2C08BF19460EE01E490CE01E490AE003
S31500002DBC1E4908E01E4906E01E4904E01E4902E0D1
S31500002DCC1E4900E01E49202004F092F82B69002BC6
S31500002DDCC7D01C4953F82720202004F089F8C0E7F7
S31500002DEC2020194904F098F820200FF039F9EA68E8
S31500002DFC1AB12020154904F07BF82020124904F062
S31500002E0C8BF82020BDE8F0410FF02AB9052E0300FF
S31500002E1C011403002B1E0300D1490300251E0300D9
S31500002E2C281E0300E41D0300D81D0300EF1D03003C
S31500002E3CFB1D0300051E0300101E03001B1E0300D2
S31500002E4C00140300351E0300036203003B1E03003F
S31500002E5CF0B5214B93F87B20104453FA80F00026F2
S31500002E6C90F8655090F866205F19551B1B4A013780
S31500002E7C92F800E0EDB230461A46F4B2AC4228D2D3
S31500002E8CBB5D11B10CB92D2B21D0782B18D0582B3A
S31500002E9C08D0602B1ED8402B05D83A2B34BF3024D3
S31500002EAC002401E068B137241B1BDBB2734502D248
S31500002EBC00FB0E300BE0052382F879300020F0BDC4
S31500002ECC40B9013C012CE4D84FF0100E002001361D
S31500002EDCD3E7F0BD5724E7E7611F0020681A0020EE
S31500002EEC014B1B68186870474C2D0020094A0023BB
S31500002EFCFF21137082F8783082F8653082F87730CB
S31500002F0C82F8793082F87A1082F87B30024A1360A4
S31500002F1C704700BF611F00204C2D0020034A92F819
S31500002F2C773092F87B00181AC0B27047611F0020E8
S31500002F3C0021FFF78DBF000010B50A4A92F87B30CE
S31500002F4C034452FA83F393F8653013445C78A4F186
S31500002F5C2D035C425C412146FFF77AFF04B14042E7
S31500002F6C10BD00BF611F002030B50C4A92F87B30B3
S31500002F7C0344C043DBB2C00F39B1D51895F866408F
S31500002F8C95F86550641B241A0C7042FA83F393F877
S31500002F9C65301A440132104430BD00BF611F002059
S31500002FACF7B50E460DF1070115461C46FFF7DCFF7B
S31500002FBC9DF80730AB42074688BF8DF807501CB109
S31500002FCC9DF807402C1BE4B230462246002100F047
S31500002FDCC7FB301939469DF8072000F067FB9DF8B2
S31500002FEC070003B0F0BD38B508220C460123FFF7E5
S31500002FFCD7FFE21D2146002314780D7802F80159FB
S3150000300C013B01F8014B1C1DF6D138BD10B5044629
S3150000301C21460120FFF78AFE6368A4681BB122785B
S3150000302C6E2A0DD11C4623684BB10649202003F0AD
S3150000303C5FFF21460020FFF779FE1434F3E710BD3D
S3150000304C10BD00BFD149030008B52020034903F089
S3150000305C4FFF2020BDE808400FF002B8D31E030036
S3150000306C10B5FFF7F1FF054C23682BB12146002064
S3150000307CFFF75CFE1434F7E710BD00BF1003030026
S3150000308C2DE9F84302461F4B1F4E53F822201F49C9
S3150000309C202003F02DFF33681BB9BDE8F843FFF77A
S315000030ACDFBFFFF7D1FF0027194C94F87B305FFA8E
S315000030BC87F8013B984520DA44FA87F393F8655074
S315000030CC25440135002304EB080103F1010991F8AD
S315000030DC662091F86510521ADBB2D2B293424FF0C9
S315000030EC200005D2EA5C0B4903F002FF4B46EAE7E7
S315000030FC094903F0FDFE0137D6E73068BDE8F84311
S3150000310CFFF784BF6C1A00204C2D0020131F030000
S3150000311C611F0020552D0300D24903002DE9F84FFD
S3150000312C804D95F87730002B00F093807E4B1B7802
S3150000313CDB0720D5002495F877107A4AE3B299423A
S3150000314C15D942FA84F1134491F86510114493F899
S3150000315C662093F86530D21A0131D2B220200EF0D7
S3150000316C7AFF2020714903F0C3FE0134E3E72020E7
S3150000317C6F4903F0BDFE95F877A0DFF8C0E16D4C02
S3150000318C00269EF800201EF8013F1EF8017C2A44FA
S3150000319CDF1B4FF0000C0132FFB2E046206858B33B
S315000031AC01389146C2EB090BBB4510F8013FB3FA47
S315000031BC83F14FEA511101D109B127E021B1B8F1E0
S315000031CC000F15D1A04615E019F8011BA1F1410B12
S315000031DCBBF1190F98BF2031A3F1410B98BFC9B2AF
S315000031ECBBF1190F9CBF2033DBB29942DAD001E058
S315000031FC4FF0010C1434D1E74446BCF1000F00D15A
S3150000320C24B9022385F87930002419E04A4B1C6056
S3150000321C95F87B30013385F87B306368A2680136FC
S3150000322CF6B20BB9144606E012786E2A02D03F2A83
S3150000323C13D105E01C465645A3D3032385F87930F4
S3150000324C95F8790018B9606800F060F901E0FFF7AD
S3150000325C17FFBDE8F84FFFF749BE4FF000094F4680
S3150000326C5FFA89F0831995F877102E4ADBB29942EA
S3150000327CA3684CD992F87B10DB5D014452FA81F1BC
S3150000328C732B91F865101144497805D8712B07D228
S3150000329C43B3622B20D029E0A3F17502022A25D86C
S315000032AC752B0AD0762B0BD0732B0CD0722B47F6C2
S315000032BCFF7818BF4FF0FF3807E04FF0FF0804E027
S315000032CC4FF6FF7801E04FF07F080121FFF7C0FDB4
S315000032DC40450ED904230AE022290AD07B2908D0BE
S315000032EC052300E0032382F8793002E0072385F8F2
S315000032FC7930A3683B4409F101095B782A2B95F8D0
S3150000330C79301CBF0137FFB2002BA9D098E7D95DE5
S3150000331C002995D01F447B782A2B1CBF032382F8E7
S3150000332C79308DE7611F0020601F0020D249030011
S3150000333C101F0300100303004C2D0020C61F002095
S3150000334C2DE9F34105460C46002655B920460DF1EC
S3150000335C07010EF07BFE68B1262800F0CE80012214
S3150000336C5CE0002C00F0C98015F8013B8DF80730A5
S3150000337C013CE4B2634A13780D2B9DF807301370A9
S3150000338C01D10A2BE1D00D2B04D0A3F10A0672420F
S3150000339C724100E00122A3F120014F424F415A49EC
S315000033ACA3F1220091F800C0D0F1000E4EEB000EF6
S315000033BC16460846BCF1040FC7D8DFE80CF0031319
S315000033CC18229200002A69D1002FBDD1BEF1000F40
S315000033DC01D0022302E07B2B02D103230B7061E0A8
S315000033EC0123FBE7002A42D1002F40D15AE0BEF15F
S315000033FC000F3CD1002A55D0052381F879300126DF
S3150000340C6CE091F87AE0BEF1FF0C18BF4FF0010C9E
S3150000341C7D2B07D1BCF1000F29D005223A4B83F83E
S3150000342C79205BE0602B06D8402B06D83A2B34BFAC
S3150000343C3022002202E0572200E037229A1AD3B239
S3150000344C0F2B0DD8BCF1000F07D003EB0E138DF824
S3150000345C0730FF2381F87A3024E081F87A3074E75C
S3150000346C002F7FF472AF052381F8793036E091F89E
S3150000347C77302548112B03D1032380F879302DE0C2
S3150000348C0133DBB280F87730034490F8781083F878
S3150000349C651000230370002A3FF456AFFFF73EFE7B
S315000034AC012652E791F87820174B642A01D106229F
S315000034BCB5E71B78012B09D19DF80730A3F141071D
S315000034CC192F9CBF2033DBB28DF8073083189DF87B
S315000034DC07005870013281F8782036E70A4B04222F
S315000034EC1A70002E3FF431AF074B93F8790008B1F0
S315000034FCFFF7C6FDFFF7FAFC27E7304602B0BDE83A
S3150000350CF08100BFDD1F0020611F002010B5054BA8
S3150000351C0446187800F022FAA047BDE8104000F0E7
S3150000352C24BA00BFEC1F00200B0A43EA012189B222
S3150000353C4840C0F303114140080380B24840C3B26F
S3150000354C80EA431070470000014B1878704700BFA3
S3150000355CDE1F0020014B1870704700BFDE1F0020D5
S3150000356C15F00EBF38B5A0F1430305460A2B30D82B
S3150000357CDFE803F0060A0A12122F2F2F2F2F350021
S3150000358CBDE8384028F07CBC28F044FC20B128F07B
S3150000359C77FC0028FBD138BD114C2078F8B90123F3
S315000035AC443D23700FF0D4F9032D0BD8DFE805F05A
S315000035BC0E0E050240F6010001E040F6020026F070
S315000035CC2BF903E00748752102F0F6FC0023237063
S315000035DC38BD04488721BDE8384002F0EDBC38BD43
S315000035ECDF1F0020871F0300704770477047704726
S315000035FC7047704770477047704770477047704701
S3150000360C0020704770477047704770477047704787
S3150000361C70470020704700207047704700F00CB8C8
S3150000362C00F00AB800F008B800F006B800F004B8CC
S3150000363C00F002B800F000B872B61EF0080F08D001
S3150000364C1EF0040F0BD0DFF848E0AEE8FF1F114860
S3150000365C0AE0DFF83CE0AEE8FF1F0F4804E0DFF8B5
S3150000366C30E0AEE8FF1F0D486946EFF309828EE89D
S3150000367C070086460A480B4C854501D3A54501D360
S3150000368C84F3088802F0BAFC84F3088826F0C4F8A0
S3150000369C04000020FDFFFFFFF1FFFFFFF9FFFFFF16
S315000036AC20110020401A0020FFF7C4BF8842F0B555
S315000036BC03D804460B46154629E0531E97086FF0AF
S315000036CC03051844194407FB055504460E460544E4
S315000036DC043CAC42A6F1040608D033792371F37886
S315000036ECE370B378A37073786370F1E76FF003033C
S315000036FC7B43194402F00302013318448A1A91429F
S3150000370C04D011F8013900F8013DF8E7F0BD032D9E
S3150000371C04F1040403F1040312D913F8046C04F83D
S3150000372C046C13F8036C04F8036C13F8026C04F8BD
S3150000373C026C043D13F8016C04F8016CADB2E6E7BB
S3150000374C93089B00194402F00302013B18440A44F7
S3150000375C914204D011F8013B00F8013FF8E7F0BDA7
S3150000376C22B1013A00F8011B92B2F9E7704710B585
S3150000377C013801395AB110F8013F11F8014FA34233
S3150000378C02D01A1B90B203E0013A92B2F2E710464D
S3150000379C00B210BD10B5013801395AB110F8013F0D
S315000037AC11F8014FA34202D01A1BD0B203E0013A22
S315000037BC92B2F2E7104640B210BD00000A4B10B5AB
S315000037CC00241C70FDF746FA084B2146188052223D
S315000037DC0748FFF7C5FF074B07481C8021460C22FC
S315000037ECBDE81040FFF7BCBF212000208E2D002025
S315000037FC902D0020802D0020822D002007490B885B
S3150000380C512B9FBF064AD05401339BB29DBF0B80F0
S3150000381C03F1FF3398180020704700BF802D00205D
S3150000382C902D002038B50546C0B2FFF7E7FF0446D9
S3150000383C280AFFF7E3FF24B1002814BF2046002016
S3150000384C38BD204638BDF8B50546C0B2FFF7D6FFE1
S3150000385C0646C5F30720FFF7D1FF0746C5F3074019
S3150000386CFFF7CCFF0446280EFFF7C8FF36B13FB171
S3150000387C44B1002814BF30460020F8BD3046F8BDD0
S3150000388C3846F8BD2046F8BD70B50B4E0346308859
S3150000389C4218512A0D460CDC084C194620442A467F
S315000038ACFFF704FF32882A4493B233805B1B181946
S315000038BC70BD002070BD00BF802D0020902D002013
S315000038CC10B5CC1894420CDC002243B144181C44AD
S315000038DC013B14F8014CDBB204EB0222F5E710466F
S315000038EC10BD002010BD0423FFF7EABF0323FFF72A
S315000038FCE7BF08B50223FFF7E3FF80B208BD00005F
S3150000390C8A4210B50BD9435CFF2B00EB010408BFB0
S3150000391C002304480B449342B8BF204610BD01480F
S3150000392C10BD00BFE61F00200078FF2808BF00204E
S3150000393C704708B500210222FFF7DBFF4FF6FF7335
S3150000394C984208BF002008BD024B034A1A600020AB
S3150000395C704700BFE81F002092FA0200002814BF2F
S3150000396C7020002070470020704700207047704779
S3150000397C08B5FDF7C5FDFF280CBFFF20002008BDCC
S3150000398C08B5FFF7F5FFFF280CBFA320002008BDE4
S3150000399C002303707047FCF792BC000010B51CF0B6
S315000039AC01F80449044A0346BDE81040022000F021
S315000039BCD9B800BFFC1F0300B30A03002DE9F84376
S315000039CC80460F461646994600F0AEF898B13E442E
S315000039DC3D46EC1BB542A4B20DD04046494615F8FF
S315000039EC012B04F00F0400F0DBF8062CF1D1404655
S315000039FC00F0AEF8EDE7BDE8F883000030B5054CF5
S31500003A0C054D002B14BF2B462346BDE83040FFF76F
S31500003A1CD5BF00BF612903002421030000B502466F
S31500003A2C89B00C4B91791888D37900915179019111
S31500003A3C11790291D178039191780491517805917D
S31500003A4C1278069204493E2200F0AAF809B05DF8F5
S31500003A5C04FB00BFEE1F002028210300024B034984
S31500003A6C0246188800F07EB8EE1F0020052E0300D3
S31500003A7C2DE9F04106460F4690460024B4421AD072
S31500003A8C0E4D0F4B288807EBC4010822FFF796FF53
S31500003A9C01342888B8F1000F05D10A4A0A4BB44202
S31500003AAC08BF1A4600E0084A084900F079F8288849
S31500003ABC00F04EF8E2E7BDE8F08100BFEE1F0020F3
S31500003ACC2421030003620300101F0300042E0300CD
S31500003ADC014600220220FFF7CBBF000070B50F4C49
S31500003AEC0646208800F020F8B0B100250123F20725
S31500003AFC0DD51BB920880A4900F052F820880949CF
S31500003B0C2A4600F04DF8208800F022F800230135F3
S31500003B1C1B2D4FEA5606EAD170BD00BFEE1F0020E2
S31500003B2C19F80200432E03004FF6FF7290424FEA3B
S31500003B3C102307D043B9054B1B78184214BF01203C
S31500003B4C002070470120704700207047381B00206A
S31500003B5C08B5FFF7E9FF20B12020BDE808400EF0BC
S31500003B6C7FBA08BD0EB477B507AC054654F8046B9E
S31500003B7C0194FFF7D9FF50B131462246202003F0BD
S31500003B8CDEF92020044903F0B3F9044B1D8003B081
S31500003B9CBDE8704003B07047101F0300EE1F0020F5
S31500003BAC0EB477B507AC054654F8046B0194FFF7D1
S31500003BBCBBFF30B120203146224603F0C0F9034B3F
S31500003BCC1D8003B0BDE8704003B07047EE1F0020A7
S31500003BDC13B503680446587900F070FD236870B974
S31500003BEC5A88032A0BD05B790092E27C0192012061
S31500003BFC0F49104AFFF7B6FF2046012112E05B88F9
S31500003C0C192B06D02046FEF731FE014660B1204640
S31500003C1C08E0637D012BF5D120460BF047FD00280B
S31500003C2CF0D001E000F02BFF012002B010BD00BF68
S31500003C3C8E210300B82103002DE9F04F89B0C27C18
S31500003C4C0492427D03688768868990F814A0B3F8BD
S31500003C5C0280002A0CBF4022802205465879059224
S31500003C6C00F02CFD88B9049B7BB1023B012B0CD9CF
S31500003C7C049B052B09D0B8F1030F06D00120A449EB
S31500003C8CFFF770FF2846012177E2EB7B1BB12A8AEE
S31500003C9C002A00F06C829F4A00211180697D002960
S31500003CAC91460CBF182010200BB140F00400FFF712
S31500003CBCA5FDEB7B13B1288AFFF7B4FDA87CFFF7B3
S31500003CCC9DFD049B1FFA8AF4162B00F25082DFE846
S31500003CDC13F017007701B1004C00AD01B1006C0177
S31500003CECB5017001BD01C501CD012F01E1014E02E7
S31500003CFC4E024E02F5012002F50137022F01E101B9
S31500003D0C04208549854A4346FFF72CFF0120FFF71F
S31500003D1C75FD631CB34280F2F98121463246384662
S31500003D2CFFF7E7FD2B68824658792B8A0093B9F882
S31500003D3C0030C3F152039BB2019341465246059B98
S31500003D4CFDF7BBF970B92B6858792B8A0093714B28
S31500003D5C1B88C3F152039BB2019341465246059B05
S31500003D6CFEF790F8A21C94B2D3E70420FFF746FDA9
S31500003D7C00230693A31CB34250DA3846214632463A
S31500003D8CFFF7B7FD3B19834693F802A05046FDF7A3
S31500003D9C1DFA38B1E01C3844FFF7C6FD01305FFA56
S31500003DAC80F903E05046FDF7A3F981465046FDF72E
S31500003DBC0DFA30B104EB09026FF002039B1ADE42D6
S31500003DCC10D42B6858792B8A0093E31C3B4401933F
S31500003DDCCDF808A041465A46059BFDF7F9FF8246E9
S31500003DECB8B101E04FF0800A069B0133DBB25046B6
S31500003DFC0693FFF703FD5846FFF714FD04204849C8
S31500003E0C42465B46FFF7AEFE042046495246FFF794
S31500003E1CA9FE09F10302224494B2ABE7069B002BE0
S31500003E2C40F07481EB7B2C7D002B3A4B14BF0422A3
S31500003E3C02221A800420FFF7E1FC4FF0000BDA4651
S31500003E4CE31C9E424EDD2146324638460793FFF769
S31500003E5C50FD3A19069092F802904846FDF7B6F9CD
S31500003E6C079B30B1F818FFF75FFD0130C3B207931B
S31500003E7C03E04846FDF73CF907902B68069A5879FB
S31500003E8C2B8A0093E31C3B440193CDF808904146E2
S31500003E9C059BFDF745FF2249069B814642460420B9
S31500003EACFFF77EFEB9F1000F08D10BF1010B0420D0
S31500003EBC1D495FFA8BFBFFF755FE0EE04846FFF7F0
S31500003ECC9DFC0698FFF7AEFC0AF1010A0420154981
S31500003EDC4A465FFA8AFAFFF745FE079A03322244EE
S31500003EEC94B2ADE7049B052B00F04981BAF1000FA3
S31500003EFC40F00C81BBF1000F06D104200B49FFF7F3
S31500003F0C31FE2846802138E15046FFF777FCFDE06C
S31500003F1CC5210300802D00200D220300CE210300B5
S31500003F2CD8210300F2210300B7000300FA21030095
S31500003F3CDFF860C2DFF860E2049B9349934ACDF840
S31500003F4C0080152B0CBF734663460420FFF70AFE50
S31500003F5C049B0C2B0CBF0D201620FFF74FFC38468C
S31500003F6C21463246FFF7C5FC049B5744152B834666
S31500003F7CBC7802D1132C28BF13240020B9F800609A
S31500003F8CFFF73CFC2B6858792B8A8DE81800049BAC
S31500003F9CA3F115046342634102934146059B5A46BD
S31500003FACFDF770FD7A4B9855B0E028460DF0B0F849
S31500003FBC02E028460CF090FE002800F0D880DEE0E7
S31500003FCCB8F10A0F07EB0A0924D1DFF8D0B19BF838
S31500003FDC0030FBB1EB7BEBB9CAEB060ABAF1080F62
S31500003FEC18D1384621463246FFF783FC90B999F82A
S31500003FFC02A0BAF1000F0DD199F80330E22B09D1CA
S3150000400C211D89B232463846FFF76DFC00F0DFFA07
S3150000401C8BF800A0321B4046494692B2FDF763F876
S3150000402C002840F0AC8028460021A6E0321B404612
S3150000403C07EB0A0192B2FEF7DBFCF1E7321B4046B6
S3150000404C07EB0A0192B2FEF76FFCE9E7321B40461A
S3150000405C07EB0A0192B2FEF7B5FCE1E7321B4046CC
S3150000406C07EB0A0192B2FDF740F8D9E70134A4B286
S3150000407C2B6817F80A603C5D5879059B00934146FE
S3150000408C32462346FDF7E6FB404631462246FEF70E
S3150000409C4DFC74E0049B17F80A10A3F11600621C81
S315000040AC434292B24341B41A00310093404618BFC2
S315000040BC01213A44A3B2FEF73BFCB1E7049B17F887
S315000040CC0A605744112B7F7804D11220FFF796FB18
S315000040DC002003E01420FFF791FB0120B9F8004003
S315000040ECDFF8ACA00296C4F1510292B2631C8DE8C3
S315000040FC04025344039729464246FDF779FCB9F866
S3150000410C00300AF804000133A9F8003000F068FC0E
S3150000411C35E017F80A20631C9BB20032A6EB0306A7
S3150000412C18BF0122B6B20021C8B2B04201F101019A
S3150000413CFAD3298A009640463B44FEF7FDFB6FE70F
S3150000414C17F80A20631C9BB20032A6EB030618BFB5
S3150000415C0122B6B20021C8B2B04201F10101FAD374
S3150000416C298A009640463B44FEF7E4FB58E7EB7B76
S3150000417C002B284614BF8421822100F080FC0120EC
S3150000418C09B0BDE8F08F00BF0B2203001A22030012
S3150000419C902D002003620300C0210300F01F0020B5
S315000041AC82B2064B0AB94BF6EF621A80000C044B2E
S315000041BC0ABF4FF6CE2218801A8070473A1B002091
S315000041CC3C1B0020094B1888020448BF80F0620093
S315000041DC42001A80064A1388190444BF83F480539C
S315000041EC83F00B0359001180584070473A1B00208E
S315000041FC3C1B0020034B1870034B1970034B002219
S3150000420C1A707047F31F0020F11F0020F21F0020C8
S3150000421C10B5012404704FF6FB74A1429CBF6FEAE3
S3150000422C43436FEA53430381426008210348FFF777
S3150000423CB2FB0420BDE81040FEF76CBBE42D002059
S3150000424C30B585B00446FFF789FB0C20114B604353
S3150000425C00241D181C541048FFF79AFB0420FEF787
S3150000426CBAFB6A6892B12B89039413F4004FC3F31B
S3150000427C0E0314BF02212146ADF806304FF6FF732C
S3150000428C8DF80410ADF8083001A89047FFF76DFBC8
S3150000429C05B030BDF41F0020E42D002038B50446CF
S315000042AC436808460D469847B4F90830002B02DBE4
S315000042BC2B78042B07D10023636014F070FCBDE847
S315000042CC3840FFF7BDBF38BD2DE9F8431C460546FF
S315000042DC8946904614F063FC0C26104F4643BB5D92
S315000042ECABB94FF6FD734FF6FB72954288BF1D4670
S315000042FC284623464946424600F03EF9044648B94C
S3150000430CB8192946089A0623FFF782FF02E07020A7
S3150000431CBDE8F8832046BDE8F88300BFF41F0020F3
S3150000432CF8B50E46054614F03AFC0C230B4A5843D6
S3150000433C1718115C69B928460A46402320F06BFB16
S3150000434C044640B93846294632460123FFF760FF3A
S3150000435C01E07020F8BD2046F8BD00BFF41F002018
S3150000436C0020FFF76DBF00002DE9F0479CB0144606
S3150000437C1D468A4614F013FC0C237E4A43438046A2
S3150000438CD65CD7189146002E00F0F080BAF80010D3
S3150000439C002940F0EA803A89BAF8023042F400402B
S315000043AC834240F0E0806178002940F0DF80A3F57D
S315000043BC0043062B00F2D980DFE813F09600960036
S315000043CCD700D7000700B6007000E179A379E07A30
S315000043DC8DF80C0003EB0123ADF81C30617A237ABF
S315000043EC03EB0123811D0D3DADF81E3014F811E0D1
S315000043FC63798DF8203015F001058DF814E040F046
S3150000440CB5800DF1240CCDF810C004F10C082B4628
S3150000441C5FFA83F9814508F1020809D218F801AC54
S3150000442C18F8029C09EB0A292CF813900133EFE7D4
S3150000443C4B0001330CEB400103F0FF0306915FFACE
S3150000444C85FC0CEB0001F445C9B211D20DF1700CD0
S3150000445C0CEB410104EB030C01359CF8018014F8BC
S3150000446C03C002330CEB082C21F84CCCDBB2E6E78C
S3150000447C12F4004F14BF03230123E1788DF80030AA
S3150000448CA37803EB0123ADF80430C2F30E0203ABA1
S3150000449CADF8022002933846694622E0042D65D910
S315000044AC2079A178E378053DADB2A8425ED100280B
S315000044BC5CD012F4004F01EB03238DF80C0004F1D1
S315000044CC050414BF03200120C2F30E02ADF82830F8
S315000044DC03AB04948DF82400ADF826200B933846D4
S315000044EC09A9FFF7DBFE41E00B2D3FD903AD0822EE
S315000044FCA11C2846FFF7DAF80C2303FB0898E17A8F
S3150000450CB8F808300B9513F4004F14BF032204229D
S3150000451C8DF82420A27AC3F30E0302EB0122ADF828
S3150000452C2820ADF82630DAE7042D1FD9E178A378D8
S3150000453C03EB01232179ADF828304B1DDBB2AB42DE
S3150000454C14D112F4004F14BF032301238DF8243029
S3150000455CC2F30E0203AB0534ADF826200B9304947C
S3150000456C8DF80C10BBE70E4600E0002630461CB05A
S3150000457CBDE8F087F41F00202DE9F3410646012023
S3150000458C0D4690461F4618F02DFFFF28044619D0FD
S3150000459C022118F021FF42462046002119F059F954
S315000045AC002F4FF48A5300932946304613BF2246F8
S315000045BCFF222346FF2300F0F1FD0546204618F0A6
S315000045CC37FF00E01825284602B0BDE8F081FEF75B
S315000045DC07BAFEF7B7B9000010B50268174B118879
S315000045EC19805188598051791971117959714FF483
S315000045FC8A51D980D188890644BF4FF48B51D98012
S3150000460CD2888169520642BFDA8842F04002DA80CB
S3150000461C0B4B39B90B4AC18811801A7822F0020269
S3150000462C1A7010BD1A78084C42F002021A70204615
S3150000463C1622FFF73BF80023237010BD822D0020B5
S3150000464C212000208E2D00202620002010B5194C8C
S3150000465C23685879FCF754FFFF2828D0164B03EB38
S3150000466C0010237F027B9A4221D123684288198845
S3150000467C8A4205D04FF6FF70814218D1120416D427
S3150000468C2279023A012A06D9A37B5BB10948BDE817
S3150000469C1040FFF79DBA5879198908F053F900288C
S315000046ACF2D104E00348BDE81040FFF7C5BA00207C
S315000046BC10BD00BFEC2D0020E42C002008B5FCF743
S315000046CC1FFF01289ABF024B185C002008BD00BFD3
S315000046DC102E00201FB502230093032100220DF19A
S315000046EC0E03FDF7C1FB28B9BDF80E00003018BF4C
S315000046FC012000E0002005B05DF804FB2DE9F04F29
S3150000470C9B469DF82430082B924622D8034400245D
S3150000471C002583420DD013F8016D4FEA05294FEAA7
S3150000472C042849EA1469002716EB080447EB090527
S3150000473CEFE75D4508BF544505D2BAEB04006BEBB9
S3150000474C0501BDE8F08FB4EB0A0065EB0B01BDE883
S3150000475CF08F00200021BDE8F08F000008B5002086
S3150000476CFFF7FCF8FF20FDF74FF8FFF7FEF8FCF714
S3150000477C1DFD012182B20C48FEF7F2FF0B4B0C48D3
S3150000478C0C4A5221FEF7EEF9FBF770FD01F03AFBED
S3150000479C06F07CFE0CF090F900F09CFE01F084F81B
S315000047ACBDE80840FDF70EB9102E0020822D002022
S315000047BC902D0020802D0020704708B519F08EFB37
S315000047CC20B918F085F908B90CF038FBFEF7FCF89F
S315000047DCBDE80840FEF70AB910B5002291B2074BA6
S315000047EC33F831304FF6FF74A34204D0834202F102
S315000047FC0102F3D10B46184610BD00BFB8260300C4
S3150000480C38B50546FFF7E8FF4FF6FF73984218BF19
S3150000481C094B0A4C07BF0A4920880A4903EBC00317
S3150000482C0EBF2A4620885A68FFF7BAF92088BDE8D9
S3150000483C3840FFF78DB900BFB8260300EE1F0020E5
S3150000484CF4250300AB44030073B51546089C2E787B
S3150000485C16F0040F14BF05260326B3421A4607D2D8
S3150000486C022000961B491C4AFFF77CF900202EE01B
S3150000487CBDF8183020602171E380A560A2812B78E9
S3150000488C03F00103A3732B78C3F38003E373297836
S3150000489CC1F3C0016175012121753BB12846FFF7B3
S315000048AC28F8237D20820233237500E02382237DA2
S315000048BC5A1CD2B22275E95CA17402332375AB5C27
S315000048CCE374079BA36114F06AF92077012002B008
S315000048DC70BD00BF0C2603001CF80200034B1878B1
S315000048EC0130C0B2187000F07F0070473E1B0020EC
S315000048FC68B1074B1B78012B03D1038843F04003A7
S3150000490C04E0022B03D1038823F040030380704795
S3150000491C2420002068B1074A1378012B03D1064BDB
S3150000492C1B78137001E0022B03D1037843F01003BC
S3150000493C037070472320002022200020F7B5204B5F
S3150000494C1A7812F0010F06461C4635D11D4D1C4F28
S3150000495C2846FFF7DFFF1C48FFF7CAFF2B781B4AD8
S3150000496C13F0040F1A4B1B7814BFEB706B70237883
S3150000497C03F0020303F0FF004BB111881548114AEE
S3150000498CFDF7ECFF3B7823F002033B7015E0124B6E
S3150000499C19884FF6FB73994206D813880F4A8DE88F
S315000049AC6000FBF77FFE08E01288064B009608466F
S315000049BC0A49FBF74AFE00E0002003B0F0BD00BF39
S315000049CC21200020902D0020882D0020802D0020F5
S315000049DC3F1B0020262000208E2D0020822D00203B
S315000049EC0020FFF7ABBF000070B50379012B04461E
S315000049FC0D46164631D883681B78DB0600D561B3A5
S31500004A0CA37B13B9E37C0B2B27D0154B00221A8002
S31500004A1C637D9342E37B0CBF0820104613B9FEF767
S31500004A2CEDFE06E040F00400FEF7E8FE208AFEF7F5
S31500004A3CF9FEA07CFEF7E2FE0B20FEF7DFFEE07C23
S31500004A4CFEF7DCFE2846FEF7D9FE2046FFF7C4FD2E
S31500004A5C3046BDE87040FFF771BF002070BD00BF47
S31500004A6C802D00200A460349034608681946FFF7BD
S31500004A7CBBBF00BF0C2E00200021FFF7F3BF0022A6
S31500004A8CFFF7B2BFF0B507460C480D4E0478012C63
S31500004A9C0D46BDF8141001D0307810B100203070DE
S31500004AACF0BD0DB902B1F0BD34B118462A463B46ED
S31500004ABCBDE8F040FDF736BF0120F0BD401B0020DD
S31500004ACC202000202DE9F043654E664C8146944625
S31500004ADC9E4688460FCE25460FC596E80F0085B034
S31500004AEC85E80F000D9FBDF8303002948DE88800E4
S31500004AFC4846414662467346FFF7A6FEDFF890919C
S31500004B0C08B900259DE0584BA27C1A70574BC9F882
S31500004B1C00401B78002B36D0FFF75BFD544902464C
S31500004B2C0220FFF73DF82168A2894B79498800914C
S31500004B3C02205049FFF734F80220FEF7F5FF18B1B2
S31500004B4C23685888FFF75CFEE37B2BB1454B4A493B
S31500004B5C1A8A0220FFF724F8A368E17C1A78A37C52
S31500004B6C009102204549FFF71BF8217DA289A36815
S31500004B7C521A0220194492B20123FEF73FFF02207B
S31500004B8C3F49FEF7EFFF374E3046FFF725FD30461F
S31500004B9CFCF78FFA002853D127BB3168F07C0B88C1
S31500004BAC49880091A8F10202032AF18801918CBF71
S31500004BBC002201220121FFF765FF30B923685B79DA
S31500004BCCFF2B39D10026354619E03368DB889A0667
S31500004BDCF4D42C4C0125304629462570FFF74FFF9F
S31500004BEC27702EE0BB8A9B07E8D48AE73846FCF789
S31500004BFC29FD80463846FCF7DFFA30B90136FCF75A
S31500004C0CD5FAF7B28742F1D31BE02368154F5988C2
S31500004C1C4046FCF7A5FC0028F0D03846FFF7DCFC34
S31500004C2C3B6883F80580184B83F80480FFF70EFD6C
S31500004C3C002818BF0125E1E7FFF708FD054600E04F
S31500004C4C0125FEF7BBFD114800211622FEF788FD53
S31500004C5C00232846C9F8003005B0BDE8F08300BF34
S31500004C6C00200020EC2D00203F1B0020661A00209F
S31500004C7C28260300302603004E260300592603007F
S31500004C8C29F9020020200020822D00202620002059
S31500004C9C0C2E002038B5D38813F0200F0CBF5224ED
S31500004CAC492405460846590544BF083CE4B21A0592
S31500004CBC44BF083CE4B21B0444BF023CE4B2032DDF
S31500004CCC0DD8DFE805F00E02060AC0B21FF084FF0D
S31500004CDC07E0C0B213F0B8FC03E0013CE4B24FF6B7
S31500004CECFD70FDF739FE201AC0B238BD425401449E
S31500004CFC120A4A70704742540144130A4B70130C43
S31500004D0C120E8B70CA70704770B5064614460D4667
S31500004D1C09B9317070BD0B78FF2B01D1037070BDD2
S31500004D2C0846FEF701FEA04228BF2046C4B2691C05
S31500004D3C701C2246FEF7BAFC347070BD70B5054681
S31500004D4C14460E4611B96970297070BD0B78FF2B8D
S31500004D5C05D14B78FF2B02D10370437070BD3046E2
S31500004D6CFEF7E7FDA04228BF204684B22246A81CC7
S31500004D7CB11CFEF79BFC2C70240A6C7070BDF0B550
S31500004D8C002B37D0042A4BD80026531EDB003446A2
S31500004D9C354613F1080F13D0B71820B100EB070EE8
S31500004DAC1EF801EC00E086460F440EFA03FE17F8D7
S31500004DBC017C9F4045EA0E053C43083B013EE8E773
S31500004DCC042A0FD0D2000123511E03FA01F10D4221
S31500004DDC1EBF93405B421D430C421EBF4FF0FF3378
S31500004DEC93401C43A5421DDCB4BF4FF0FF3000209E
S31500004DFCC0B218E05C42E4B2944211D29C1818B1CD
S31500004E0C051915F8015C00E005460C4414F8014C34
S31500004E1CA54207D8AC4203F1FF33EBD9FF2002E0E1
S31500004E2C002000E0012040B2F0BD00000023054A3E
S31500004E3CD15C814202D20233DBB2F8E713445878D4
S31500004E4C704700BFE2250300283807288CBF0020D6
S31500004E5C0120704700F0E000A0280BD004D870B1F8
S31500004E6C80280BD11C207047C02805D0E02805D11E
S31500004E7C1F2070471D2070471E207047FF2070476B
S31500004E8C00F01F007047000073B5154D154A2B78BE
S31500004E9C154C13F0040F4FF0010614BF0423022324
S31500004EAC1670124A2188EB5C528800914FF6FF70FF
S31500004EBC0F49FEF757FE22880E494FF6FF70FEF794
S31500004ECC6FFE29464FF6FF7022883346FEF796FD95
S31500004EDC09494FF6FF7002B0BDE87040FEF742BEBE
S31500004EEC202E00203E2000201E2E0020122E0020F8
S31500004EFC002703002227030003620300124B70B540
S31500004F0C16464FF48A525980DA80104B104A1B8889
S31500004F1C104C002B14BF04210021084311780029E2
S31500004F2C18BF10210143217023B163701B0AA370B3
S31500004F3C032500E00125FFF7D1FC6B1C6055E654F8
S31500004F4C054B02351D8070BD122E00203C20002022
S31500004F5C3F200020202E00201E2E0020034A04494C
S31500004F6C1388C85401331380704700BF1E2E0020CF
S31500004F7C202E002010B50446C0B2FFF7EFFF200A22
S31500004F8CBDE81040FFF7EABF38B505460424E8B281
S31500004F9C013CFFF7E3FF14F0FF044FEA1525F6D1A9
S31500004FAC38BD08B5FDF7C4FFBDE80840C0B2FFF731
S31500004FBCD5BF08B5FDF7C0FFBDE80840C0B2FFF786
S31500004FCCCDBF08B5FDF7B8FFBDE8084080B2FFF7C6
S31500004FDCD1BF08B5FDF7B0FFBDE80840FFF7D4BF59
S31500004FEC08B5FDF7A5FFBDE8084080B2FFF7C2BFC4
S31500004FFC08B5FDF79DFFBDE80840FFF7C5BF0000EB
S3150000500C38B50B4C0B4D2188C1F1510292B2FF2AD7
S3150000501C28BFFF220131002340B22944D2B2FDF74A
S3150000502CBFFF2388E85401331844208038BD00BFE5
S3150000503C1E2E0020202E0020F8B50D4614460746DD
S3150000504CFDF76CFF2946224606463846FFF756FF03
S3150000505C00242546E0B2B04234D21C4B1B68691CB6
S3150000506C9A68B142535D04DA2A4452782A2A18BF48
S3150000507CCDB2722B1CD006D8622B1FD0712B1AD036
S3150000508C2A2B1FD11CE0752B0CD004D8732B19D1ED
S3150000509CFFF78FFF14E0762B07D0772B12D1FFF793
S315000050ACA7FF0DE0FFF77DFF0AE0FFF799FF07E08A
S315000050BCFFF787FF04E0FFF78CFF01E0FFF7A0FF87
S315000050CC0134C7E7BDE8F840FFF7DEBE4C2D0020E3
S315000050DC1FB50023ADF80E300F4B1B681B685B78B1
S315000050EC6E2B0AD10120FDF723FF80B210B1ADF86B
S315000050FC0E0002E03C23ADF80E300020FDF718FF41
S3150000510C21230093032100220DF10E03C0B2FCF7FC
S3150000511C4FFE05B05DF804FB4C2D0020034B1878B0
S3150000512C0130C0B2187000F07F007047402000209C
S3150000513C1FB5030A8DF80E300323009303AB8DF8CD
S3150000514C0D0000F0C3F805B05DF804FB30B585B072
S3150000515C0446ADF80A20221D92B20020012A1D46F3
S3150000516C8DF808008DF80900ADF80610ADF80400AE
S3150000517C03D94FF6FF72944207D1074B20461A7893
S3150000518C01A92B461DF07EFF03E0214601AA1EF065
S3150000519C41F805B030BD00BF411B00202DE9F04F92
S315000051ACFF2A99461DBF484B1B689E5C002618BFFC
S315000051BC7608B9F1FF0F1EBF434B1B6813F8098025
S315000051CC85B00C46834614BF4FEA58084FF00008CA
S315000051DC9246FFF7A3FF4FEA1B238DF808008DF8C4
S315000051EC0B4002A8240A06218DF809B08DF80A3066
S315000051FC8DF80C408DF80D6018F06CFAFF280546FA
S3150000520C01D118205DE07300DC1D4FEA4807E4B2BB
S3150000521CE119C9B2009318F011FA06460028F0D12C
S3150000522C009B9E4206F1060C1BD031465046CDF82B
S3150000523C04C018F0C7FADDF804C002465FFA8CF118
S3150000524C284618F0C4FA711CC9B2504618F0BAFABE
S3150000525CF11D0246C9B2284618F0B9FAB31CDEB2E3
S3150000526CDEE728465FFA8CF1424618F0B0FA0137B1
S3150000527CFFB20126BE4218D0711EC9B2484618F0BC
S3150000528CA1FA21460246284618F0A1FA31464846AC
S3150000529C18F098FA611C0246C9B228460234023646
S315000052AC18F095FAE4B2F6B2E4E70621BDF8382018
S315000052BC2B465846FFF74AFF0446284618F0B8F81E
S315000052CC204605B0BDE8F08FB81A00202DE9F04154
S315000052DC1C460F4616468046FFF720FF9DF8181011
S315000052EC2070204618F0F6F9FF2805460CD03946F2
S315000052FC32462B464046FFF729FF0446284618F04F
S3150000530C97F82046BDE8F0811820BDE8F081000032
S3150000531C70B5144C0346880022182044927815095F
S3150000532C062D98BF104E02F00F0294BF755DFF2537
S3150000533C062A1D719ABF0D4DAA5CFF225A71FF3ABF
S3150000534C18BF0122C2709A7114F82120084C5A70A9
S3150000535C42789A701946204603F090FD0123A3600B
S3150000536C70BD00BF412000206B2903006429030097
S3150000537C0020004030B585B000210C2201A82AF08F
S3150000538C9EF8214A2148FF238DF809300378546C86
S3150000539C916B2140C907DBB233D5022B31D8916C06
S315000053AC1B4A02EB83028CB2D5781A4A2DB10D0436
S315000053BC03D5002122F8131001E022F813401649F8
S315000053CC012202FA03F30A7813430B70134B1A7873
S315000053DCAAB100221C78114DD440E407D1B20AD5EB
S315000053EC01702878012393404340DBB201A82B704F
S315000053FCFFF78EFF05E00132032AEBD101E0032310
S3150000540C037005B030BD00BF002000404F200020C7
S3150000541C41200020502000204E2000204D2000204E
S3150000542C0120704710B5084C23681B685879FCF7A7
S3150000543CEEF923681B685879FDF797FA0020FFF7F9
S3150000544C1BFB012010BD00BF0C2E002007B5002051
S3150000545CFDF76EFD02AA003018BF012002F8010DFF
S3150000546C7F212420012301F0AFFB03B05DF804FB80
S3150000547C38B1012805D0022803D0032801D004280E
S3150000548C07D1044B044903EBC00302205A68FEF70C
S3150000549C87BB7047282C03009C29030038B513F0F2
S315000054ACABFA0BF0CBFC0024FBF780FEE5B2854291
S315000054BC04F101040CD22846FCF7C4F80546FCF7A7
S315000054CCA6F9284607F040FA28460CF037FBEBE71E
S315000054DC38BD0000014817F097BD00BF7C2E002098
S315000054ECF8B515461F46134A134B0446002808BF49
S315000054FC1A460E46234602201049FEF733FB0220BD
S3150000550C0F493A46FEF72EFB02200E4932462B4631
S3150000551CFEF728FB02200C492246FEF723FB14B9A2
S3150000552C0A4B1C70F8BD09484FF4A051BDE8F84071
S3150000553C17F076BD012C0300A0290300AD2903004A
S3150000554CD3290300E92903000D2A0300742E002039
